:020000040800F2
:10000000008001207D2400082D0400082F04000832
:100010003104000833040008350400080000000023
:10002000000000000000000000000000370400088D
:1000300039040008000000003B0400083D040008EB
:10004000CD240008CD240008CD240008CD240008CC
:10005000CD240008CD240008CD240008CD240008BC
:10006000CD240008CD240008CD240008CD240008AC
:10007000CD240008CD240008CD240008CD2400089C
:10008000CD240008CD240008CD240008CD2400088C
:10009000CD240008CD240008CD240008CD2400087C
:1000A000CD240008CD240008CD240008CD2400086C
:1000B000CD240008CD240008CD240008CD2400085C
:1000C000CD240008CD240008CD240008CD2400084C
:1000D000CD240008CD24000879070008CD240008AD
:1000E000AD040008CD240008CD240008CD2400086C
:1000F000CD240008CD240008CD240008CD2400081C
:10010000CD240008CD240008CD240008CD2400080B
:10011000CD240008CD240008CD240008CD240008FB
:10012000CD240008CD240008CD240008CD240008EB
:10013000CD240008CD240008CD240008CD240008DB
:10014000CD240008CD240008CD240008CD240008CB
:10015000CD240008CD240008CD240008CD240008BB
:10016000CD240008CD240008CD240008CD240008AB
:10017000CD240008CD240008CD2400080000000094
:08018000CD240008CD24000885
:10019000034613F8012B002AFBD1181A01387047C7
:1001A00001F0FF01102A2BDB10F0070F08D010F828
:1001B000013B013A8B422DD010F0070F42B3F6D12C
:1001C000F0B441EA012141EA014122F007047FF045
:1001D00000070023F0E80256083C85EA010586EA9C
:1001E000010685FA47F5A3FA87F586FA47F6A5FAD8
:1001F00087F68EB9EED1F0BC01F0FF0102F00702E4
:1002000032B110F8013B013A83EA010313B1F8D18E
:100210000020704701387047002D06BF354603386F
:10022000073815F0010F07D1013015F4807F02BFA8
:10023000013015F4C03F0130F0BC0138704700BFF9
:1002400053B94AB9002908BF00281CBF4FF0FF313D
:100250004FF0FF3000F00CB8ADF1080C6DE904CEA2
:1002600002F0DCFDDDF804E0DDE9022304B07047B4
:10027000704700BF10B5054C237833B9044B13B158
:100280000448AFF300800123237010BD60000020FC
:1002900000000000D830000808B5034B1BB103492B
:1002A0000348AFF3008008BD000000006400002098
:1002B000D830000830B58BB005AD00240594069405
:1002C000079408940994214BDA6C42F00402DA6432
:1002D000DA6C02F004020192019ADA6C42F08002B8
:1002E000DA64DA6C02F080020292029ADA6C42F06E
:1002F0000102DA64DA6C02F001020392039ADA6C0A
:1003000042F00202DA64DB6C03F002030493049B04
:10031000224620214FF0904001F0A4FF4FF40053FB
:1003200005934FF40413069307942946084801F0F7
:1003300099FE2023059301230693079408942946E8
:100340004FF0904001F08EFE0BB030BD0010024027
:100350000008004872B6FEE700B597B044220021BD
:1003600005A802F0D7F800230093019302930393AA
:1003700004934FF4007001F08BFF20BB0223059320
:100380004FF480720892102209920F931093012269
:1003900011920A221292072213921493159305A820
:1003A00000F0DCFE88B90F230093032301930023A0
:1003B0000293039304930421684601F0DDF930B9F8
:1003C00017B05DF804FBFFF7C5FFFFF7C3FFFFF7AA
:1003D000C1FF000000B58FB000F0FCFDFFF7BCFFCF
:1003E000FFF768FF00F080F801ACA446DFF838E0C2
:1003F000BEE80F00ACE80F00BEE80F00ACE80F004D
:10040000DEF80030CCF800302046FFF7C1FE0A23AA
:1004100082B22146034800F0A3FC00F013F800F07C
:1004200097F8FCE7B8000020F0300008FEE7FEE790
:10043000FEE7FEE7FEE770477047704708B500F03B
:10044000DFFD08BD164AD36C43F00403D364154B9B
:100450001A6822F000621A601A6822F080621A603C
:10046000DA6822F00062DA60DA6822F08062DA602C
:1004700003F1784303F57C431A6842F400321A60B2
:100480005A6842F400325A60DA6842F40052DA6084
:10049000054B4FF480725A60102283F8282370476E
:1004A000001002400008004800E100E008B5074BDA
:1004B0005B6913F4005F00D108BD044A536943F43B
:1004C00000535361024800F005F8F5E700040140CD
:1004D0000000040838B50446456800F03BFD236879
:1004E00083F30888A84738BD08B51548154A026047
:1004F0004FF4E133436000238360C36003610C2148
:1005000041618361C36103624362116841F020016C
:1005100011600D4AC2F81437C2F810370B4AC2F8FE
:100520001037C2F8143700F0E2FC30B9044B1A68F7
:10053000136843F02003136008BDFFF70BFFF5E7D6
:10054000B8000020004400405C480020402100200A
:100550002DE9F0417A4B1B78032B00F2D680DFE8BF
:1005600003F002417BA3774B1B78012B2DD0754BF9
:1005700003F50052D2F814279B5C022B3AD1724E3D
:100580003446724D0FCD0FC495E8030044F8040BB8
:1005900021803046FFF7FCFD4FF0FF3382B2314639
:1005A0006B4800F0DDFB6B4BDB6913F0800FFAD07A
:1005B000684B06221A85624B02221A70664AD2F8EC
:1005C00014370133C2F8143714E0624B06221A853F
:1005D0005B4B01221A70604AD2F814370133C2F81B
:1005E000143707E05C4AD2F81037D2F814279B1A68
:1005F000032B01D8BDE8F081524F3A68574B1A607F
:100600001A68514E5649304601F062FF3046FFF7F6
:10061000BFFDDFF83C814FF0FF3382B231464046E8
:1006200000F09EFB34464F4D0FCD0FC42B68236066
:100630003046FFF7ADFD4FF0FF3382B23146404602
:1006400000F08EFB3E4B00221A7007F50057D7F8DA
:100650001437C7F81037CDE73F4BD3F81027D3F83E
:1006600014379A42C6D0374B03F50054D4F81027FC
:100670009B5CDBB23C4A13701278334D3B492846F1
:1006800001F026FF2846FFF783FD4FF0FF3382B2CB
:1006900029462F4800F064FB294B03221A70D4F836
:1006A0001437C4F81037A5E720214FF0904001F02F
:1006B000DEFD294AD2F81037D2F814279B1A2A4AAD
:1006C00012789A4296D8204DAC46294C0FCCACE813
:1006D0000F000FCCACE80F0023688CF800302846E0
:1006E000FFF756FD4FF0FF3382B22946184800F05D
:1006F00037FB184BDB6913F0800FFAD0154B06223D
:100700001A850F4B00221A7074E70F4E3446194DAC
:100710000FCD0FC40FCD0FC42B6824F8023B1B0C68
:1007200023703046FFF734FD4FF0FF3382B231467D
:10073000074800F015FB024B00221A705AE700BF71
:10074000B40000205C2800207C0000201431000848
:10075000B8000020004400405C480020B0000020A9
:100760002C31000840310008AE0000205431000850
:10077000683100088C3100080C4BDB6913F0200F46
:1007800012D00A4B1B6813F0200F0DD0074B9A8C28
:10079000074901F50053D3F81007D2B20A54D3F831
:1007A00010270132C3F81027704700BF00440040F3
:1007B0005C28002082B00A4B1A6E42F001021A66D1
:1007C0001A6E02F001020092009A9A6D42F0805275
:1007D0009A659B6D03F080530193019B02B07047B3
:1007E0000010024010B5AAB00446002125912691C0
:1007F000279128912991882203A801F08BFE226875
:100800001C4B9A4201D02AB010BD0223039303A8C7
:1008100001F0FEF950BB184B9A6D42F400329A6514
:100820009A6D02F400320192019ADA6C42F00102F0
:10083000DA64DB6C03F001030293029B0C23259323
:100840000223269300242794032328930723299324
:1008500025A94FF0904001F005FC224621462620B4
:1008600001F0B2FD262001F0BFFDCCE7FFF772FDDD
:10087000D1E700BF0044004000100240026852E887
:10088000003F23F4907342E800310029F6D102685A
:1008900002F1080353E8003F23F00103083242E865
:1008A00000310029F3D1036E012B06D02023C0F8BC
:1008B00080300023036683667047026852E8003F79
:1008C00023F0100342E800310029F6D1EEE70000E2
:1008D00010B5044683680269134342691343C26931
:1008E0001343016808688F4A02401A430A6022686D
:1008F000536823F44053E1680B435360A1692268B5
:10090000894B9A4201D0236A1943936823F43063D8
:100910000B4393602368854A934210D0844A9342E4
:1009200021D0844A93424DD0834A93425DD0834A7A
:1009300093426CD07C4A93427ED010222BE002F589
:100940005842D2F8882002F00302032A09D8DFE8CF
:1009500002F00204880601221DE004221BE00822A6
:1009600019E0102217E002F5E632D2F8882002F0F2
:100970000C020C2A0ED8DFE802F0070D0D0D090D50
:100980000D0D760D0D0D0B00002204E0042202E097
:10099000082200E0102264498B4200F08680E06962
:1009A000B0F5004F00F0B280082A00F21981DFE8AC
:1009B00012F0ED000001EB00170103011701170110
:1009C0001701060102F5E432D2F8882002F0300265
:1009D000202A4AD005D8002A49D0102A49D1042219
:1009E000D9E7302A47D10822D5E702F5E232D2F81A
:1009F000882002F0C002802A3FD004D8FAB3402AEF
:100A00003FD10422C7E7C02A3DD10822C3E702F53F
:100A1000E032D2F8882002F44072B2F5007F34D080
:100A200005D8A2B3B2F5807F33D10422B3E7B2F583
:100A3000407F30D10822AEE702F5C832D2F88820D4
:100A400002F44062B2F5006F27D005D83AB3B2F590
:100A5000806F26D104229EE7B2F5406F23D1082291
:100A600099E7022297E7022295E7022293E7002204
:100A700091E710228FE710228DE702228BE70022F8
:100A800089E7102287E7102285E7022283E7002208
:100A900081E710227FE710227DE702227BE7002218
:100AA00079E7102277E7102275E7082A00F28A809A
:100AB000DFE802F0088810880D88888805004FF468
:100AC000004008E000F022FF28B9002089E000F093
:100AD000F1FAF9E71A48626802EB4203834273D8DD
:100AE000B0EB023F72D8010E00025308C0184FF05D
:100AF000000341F10001FFF7A3FBA0F54072114B89
:100B00009A4265D82368D86000206AE0082A61D834
:100B1000DFE802F01A340560376060601E000848A4
:100B200016E000BFF369FFEF00800040003801408D
:100B30000044004000480040004C0040005000408D
:100B40000024F400FFFC0F0000F0E0FE002843D07A
:100B50006268530803EB4003B3FBF2F3A3F1100107
:100B60004FF6EF72914239D89AB222F00F02C3F3D6
:100B7000420313432268D360002032E000F0D8FE25
:100B8000E4E700F097FAE1E71A4802E000F0BEFE61
:100B900058B3636800EB5300B0FBF3F0A0F1100210
:100BA0004FF6EF739A4222D8236880B2D8600020B3
:100BB00017E000F0BDFEEBE700F07CFAE8E74FF449
:100BC0000040E6E701200CE001200AE0012008E0F7
:100BD000012006E0012004E0002002E0012000E006
:100BE00001200023A366E36610BD0020F9E7012081
:100BF000F7E700BF0024F400436A13F0080F06D0A3
:100C00000268536823F40043416B0B435360436A0B
:100C100013F0010F06D00268536823F40033816A91
:100C20000B435360436A13F0020F06D00268536807
:100C300023F48033C16A0B435360436A13F0040FFB
:100C400006D00268536823F48023016B0B43536082
:100C5000436A13F0100F06D00268936823F48053A0
:100C6000816B0B439360436A13F0200F06D0026838
:100C7000936823F40053C16B0B439360436A13F0F2
:100C8000400F0AD00268536823F48013016C0B43B1
:100C90005360036CB3F5801F0BD0436A13F0800FD1
:100CA00006D00268536823F40023816C0B43536021
:100CB00070470268536823F4C003416C0B435360D0
:100CC000EBE72DE9F84305460E4617469946DDF851
:100CD00020802B68DC6936EA04040CBF0124002460
:100CE000BC4236D1B8F1FF3FF3D000F095F9A0EB4C
:100CF0000900404530D8B8F1000F2FD02B681A6892
:100D000012F0040FE5D0802EE3D0402EE1D0DA6956
:100D100012F0080F11D1DA6912F4006FD9D04FF434
:100D200000621A622846FFF7A9FD2023C5F8843027
:100D3000002385F8783003200CE008241C62284644
:100D4000FFF79CFDC5F88440002385F8783001202A
:100D500000E00020BDE8F8830320FBE70320F9E76B
:100D60002DE9F04182B01E46C36F202B56D10446B8
:100D70000D469046002955D00AB901204FE00023C6
:100D8000C0F884302123C36700F046F90746A4F871
:100D90005080A4F85280A368B3F5805F02D04FF072
:100DA000000815E023693BB34FF0000810E0202352
:100DB000E367032033E038F8023B2268C3F30803FB
:100DC0001385B4F8522092B2013A92B2A4F852209C
:100DD000B4F852309BB293B100963B46002280217A
:100DE0002046FFF76EFF0028E1D1002DE3D015F873
:100DF000012B23681A85E4E7A8460025E8E700965A
:100E00003B46002240212046FFF75BFF10B920231C
:100E1000E36704E02023E367032000E0022002B040
:100E2000BDE8F0810120FAE730B583B00446002325
:100E3000C0F8843000F0F0F805462268126812F01D
:100E4000080F0FD123681B6813F0040F26D120234D
:100E5000E367C4F8803000202066606684F878007C
:100E600003B030BD6FF07E430093034600224FF481
:100E700000112046FFF725FF0028E3D0226852E842
:100E8000003F23F0800342E800310029F6D12023FF
:100E9000E367002384F878300320E1E76FF07E43B6
:100EA00000932B4600224FF480012046FFF709FFF4
:100EB0000028CCD0226852E8003F23F4907342E827
:100EC00000310029F6D1226802F1080353E8003FFF
:100ED00023F00103083242E800310029F3D1202336
:100EE000C4F88030002384F878300320B8E768B372
:100EF00010B50446C36F03B32423E3672268136865
:100F000023F001031360636AE3B92046FFF7E0FCB6
:100F1000012811D02268536823F49043536022685B
:100F2000936823F02A0393602268136843F0010357
:100F300013602046FFF778FF10BD80F87830FFF788
:100F400051FCD9E72046FFF757FEDEE70120704746
:100F50007047000010B50A4B4FF0FF329A63DA6316
:100F600000249C63DC631A641C649A629C62DA62EB
:100F7000DC621A631C63FFF7EBFF204610BD00BF65
:100F800000100240104B1B780BB90120704710B5C0
:100F900004464FF47A70B0FBF3F30C4A1068B0FBD0
:100FA000F3F001F025FA68B90F2C01D901200AE00D
:100FB000002221464FF0FF3001F006FA044B1C607E
:100FC000002000E0012010BD0000002008000020EB
:100FD0000400002010B5094A136843F480731360BD
:100FE000032001F0DFF90020FFF7CCFF10B101244E
:100FF000204610BD0446FFF7DDFBF9E70020024064
:10100000034B1B78034A11680B441360704700BF01
:1010100000000020784F0020014B1868704700BF87
:10102000784F002030B583B00446204B9B6D13F001
:10103000805F0BD001F024F9B0F5007F17D0802C31
:101040001FD82DD0702C2DD000211BE0174DAB6D7B
:1010500043F08053AB65AB6D03F080530193019B6C
:1010600001F00EF9AB6D23F08053AB65E4E7802C03
:1010700003D9A02C03D9022104E0002102E00121C0
:1010800000E003210A4A136823F007030B431360AF
:10109000136803F007038B4206D1002003B030BD74
:1010A0000221EFE70121EDE70120F7E70010024000
:1010B00000200240254A9368D26802F0030213F030
:1010C0000C0309D00C2B05D0042B3BD0082B3BD0B4
:1010D00000200FE0012AF7D11C4A126812F0080F15
:1010E0000CD11A4AD2F89420C2F30322184951F8BD
:1010F000220013B10C2B06D000207047134A12684F
:10110000C2F30312F2E7114BDB6803F00303022B77
:1011100016D0032B00D10F480C49CA68C2F3021243
:101120000132CB68C3F3062300FB03F3B3FBF2F3F6
:10113000C868C0F3416001304000B3FBF0F0704775
:101140000548E9E70448704702487047001002402C
:10115000B031000800127A000024F400002800F0EA
:10116000F182F0B583B00446964B9D6805F00C05FE
:10117000DE6806F00306036813F0100F5AD0E5B1DD
:101180000C2D18D0A369002B00F0BB808D4A13688A
:1011900043F001031360FFF73FFF0746894B1B68CD
:1011A00013F0020F40F09A80FFF736FFC01B0228B1
:1011B000F4D90320D1E2012EE4D1824B1B6813F055
:1011C000020F03D0A369002B00F0BE82206A7D4B82
:1011D0001B6813F0080F5BD07A4B1B6803F0F00319
:1011E00098425CD8774B1A6842F008021A601A6875
:1011F00022F0F002216A0A431A605A6822F47F4200
:10120000E16942EA01225A60002D60D0FFF752FFE7
:101210006C4B9B68C3F303136B4AD35C03F01F034F
:10122000D8406A4B18606A4B1868FFF7ABFE00287D
:1012300040F09382236813F0010F00F08180082DA5
:1012400075D00C2D71D06368B3F5803F00F09780A6
:10125000B3F5A02F00F099805A4B1A6822F480321F
:101260001A601A6822F480221A606368002B00F06A
:101270009980FFF7D1FE0746524B1B6813F4003FDD
:101280005ED1FFF7C9FEC01B6428F5D9032064E2D4
:101290004C4BD3F894301B0903F0F003A0E7FFF7A1
:1012A000C1FE002840F05282464B1A6842F0080204
:1012B0001A601A6822F0F002216A0A431A605A681A
:1012C00022F47F42E16942EA01225A609EE7206AE5
:1012D000FFF7A8FE002899D001203EE2394B1A689A
:1012E00042F008021A601A6822F0F002216A0A43EA
:1012F0001A605A6822F47F42E16942EA01225A6088
:1013000098E7304A136823F001031360FFF784FE67
:1013100007462C4B1B6813F0020F8BD0FFF77CFEA7
:10132000C01B0228F5D9032017E2032E8BD1254BD1
:101330001B6813F4003F03D06368002B00F00882A1
:10134000236813F0020F58D0042D45D00C2D41D046
:10135000E368002B77D01B4A136843F48073136053
:10136000FFF75AFE0646174B1B6813F4806F61D1D6
:10137000FFF752FE801B0228F5D90320EDE1114A48
:10138000136843F4803313606FE703F18043A3F5E0
:101390003C331A6842F480221A601A6842F48032A0
:1013A0001A6062E7FFF738FE0746064B1B6813F426
:1013B000003FC5D0FFF730FEC01B6428F5D90320DD
:1013C000CBE100BF00100240E83100080800002017
:1013D00004000020022EBBD1A34B1B6813F4806FC6
:1013E00003D0E368002B00F0B5819F4A536823F0D7
:1013F000F853216943EA01635360236813F0080F2F
:101400004CD063699BB3984AD2F8943043F00103FF
:10141000C2F89430FFF700FE0646934BD3F89430A1
:1014200013F0020F3AD1FFF7F7FD801B0228F4D921
:10143000032092E18C4A536823F0F853216943EA70
:1014400001635360D9E7884A136823F480731360FB
:10145000FFF7E2FD0646844B1B6813F4806FCCD087
:10146000FFF7DAFD801B0228F5D9032075E17E4ADB
:10147000D2F8943023F00103C2F89430FFF7CCFD8A
:101480000646794BD3F8943013F0020F06D0FFF7DD
:10149000C3FD801B0228F4D903205EE1236813F00A
:1014A000040F7AD0704B9B6D13F0805F36D16E4B7A
:1014B0009A6D42F080529A659B6D03F080530193C0
:1014C000019B0126694B1B6813F4807F28D0A36819
:1014D000012B39D0052B3FD0634BD3F8902022F05D
:1014E0000102C3F89020D3F8902022F00402C3F840
:1014F0009020A368002B3DD0FFF78EFD07465A4B86
:10150000D3F8903013F0020F46D1FFF785FDC01BD2
:1015100041F288339842F2D903201EE10026D1E738
:10152000524A136843F480731360FFF775FD074652
:101530004E4B1B6813F4807FC9D1FFF76DFDC01BB4
:101540000228F5D9032008E1474AD2F8903043F049
:101550000103C2F89030CCE7434BD3F8902042F01F
:101560000402C3F89020D3F8902042F00102C3F89F
:101570009020BEE7FFF750FD07463B4BD3F8903075
:1015800013F0020F08D0FFF747FDC01B41F288336C
:101590009842F2D90320E0E0EEB9A36A002B00F0F4
:1015A000DB80022B1DD00C2D00F0DD802E4A13684D
:1015B00023F080731360FFF72FFD04462A4B1B684E
:1015C00013F0007F00F0B780FFF726FD001B022814
:1015D000F4D90320C1E0244A936D23F0805393652E
:1015E000DBE7214BDB6803F00301E26A91420FD095
:1015F0000C2D00F0B4801C4B1B6813F0806F40F082
:10160000B080194B1B6813F0805F31D00120A4E03B
:1016100003F07002216B0139B2EB011FE8D103F432
:10162000FE42616BB2EB012FE2D103F40031A26BF9
:10163000073A18BF01229142DAD103F4C001E26BEC
:101640005208013AB1EB425FD2D103F0C063226C81
:101650005208013AB3EB426FCAD1034B1B6813F037
:10166000007F4ED0002078E0001002400070004063
:101670003E4A136823F080731360FFF7CDFC0546E4
:101680003A4B1B6813F0007F06D0FFF7C5FC401BE8
:101690000228F5D9032060E0344AD3683449194060
:1016A000E36A206B013843EA0013606B43EA0023CE
:1016B000E06B4008013843EA4053206C4008013891
:1016C00043EA4063A06B000943EA40431943D160F9
:1016D000136843F080731360D36843F08073D36062
:1016E000FFF79AFC0446214B1B6813F0007F06D1DC
:1016F000FFF792FC001B0228F5D903202DE0002003
:101700002BE01A4B1A6842F080721A60DA6842F0D5
:101710008072DA60FFF780FC0446144B1B6813F0FC
:10172000007F06D1FFF778FC031B022BF5D90320BD
:1017300013E0002011E00D4AD1680E4B0B40D3603E
:1017400000200AE001207047012006E0012004E0AB
:10175000012002E0012000E0002003B0F0BD0120E4
:10176000FBE70120F9E70120F7E700BF0010024086
:101770008C809DF9FCFFEEFE002800F0AF8070B574
:101780000D460446594B1B6803F007038B420BD2EE
:10179000564A136823F007030B431360136803F0E2
:1017A00007038B4240F09C80236813F0020F0CD09B
:1017B000A2684F4B9B6803F0F0039A4205D94C494D
:1017C0008B6823F0F0031A438A60236813F0010F3B
:1017D00039D06368032B09D0022B26D063BB444A5F
:1017E000126812F0020F06D1012076E0404A12681A
:1017F00012F0007F76D03E498A6822F0030213433C
:101800008B60FFF709FC0646394B9B6803F00C031D
:101810006268B3EB820F16D0FFF7FEFB801B41F22C
:1018200088339842F0D9032057E0314A126812F405
:10183000003FE0D1012050E02D4A126812F4806F81
:10184000D9D1012049E0236813F0020F0CD0A2681F
:10185000274B9B6803F0F0039A4205D224498B681A
:1018600023F0F0031A438A60204B1B6803F0070340
:10187000AB420AD91D4A136823F007032B431360B8
:10188000136803F00703AB422ED1236813F0040F53
:1018900006D0174A936823F4E063E1680B43936032
:1018A000236813F0080F07D0114A936823F460539C
:1018B000216943EAC1039360FFF7FCFB0C4B9B6873
:1018C000C3F303130B4AD35C03F01F03D8400A4B46
:1018D00018600A4B1868FFF755FB70BD0120704770
:1018E0000120FAE70120F8E70120F6E70020024096
:1018F00000100240E8310008080000200400002029
:10190000014B1868704700BF0800002008B5FFF7BA
:10191000F7FF054B9B68C3F30223044AD35C03F033
:101920001F03D84008BD00BF00100240E03100088E
:1019300008B5FFF7E5FF054B9B68C3F3C223044AD4
:10194000D35C03F01F03D84008BD00BF0010024065
:10195000E0310008F8B504460D46594BDB6813F03A
:10196000030F18D0564BDB6803F003030268934261
:1019700002D001263046F8BD002A00F09D80504B71
:10198000DB68C3F3021301334268934201D001269E
:10199000F0E7002619E00368022B56D0032B5BD03A
:1019A000012B40F08B80464A126812F0020F5FD084
:1019B0004348C26822F073026168013943EA0113A7
:1019C0001343C3600026002ED4D13D4A136823F090
:1019D00080631360FFF720FB0746394B1B6813F049
:1019E000006F05D0FFF718FBC31B022BF5D90326A8
:1019F000002EBFD1002D3DD131490B6923F41F3397
:101A000023F44073A068E2681209520442EA0022FB
:101A100013430B612A4A136843F080631360FFF796
:101A2000FBFA0546264B1B6813F0006F05D1FFF744
:101A3000F3FA401B0228F5D90326002E9AD1204A3A
:101A40001369A1690B43136194E71D4A126812F4EC
:101A5000806FADD101268DE7194A126812F4003F5C
:101A6000A6D1174A126812F4802FA1D1012681E76E
:101A70000126A8E7012D0FD01148026922F0C062AB
:101A800022F4FE42A16863695B08013B5B0643EAFE
:101A900001231A430261BDE70948026922F4C0022A
:101AA00022F4FE42A16823695B08013B5B0543EA1F
:101AB00001231A430261ADE701265BE7012659E7DE
:101AC00000100240F8B504460D46504BDB6813F099
:101AD000030F18D04D4BDB6803F0030302689342F9
:101AE00002D001263046F8BD002A00F08A80474B1C
:101AF000DB68C3F3021301334268934201D001262D
:101B0000F0E7002618E00368022B55D0032B5AD0CB
:101B1000012B78D13D4A126812F0020F5FD03B488A
:101B2000C26822F073026168013943EA011313436A
:101B3000C3600026002ED5D1344A136823F08053A9
:101B40001360FFF769FA0746304B1B6813F0005F1C
:101B500005D0FFF761FAC31B022BF5D90326002E2F
:101B6000C0D1002D3DD129494B6923F41F3323F403
:101B70004073A068E2681209520442EA002213434B
:101B80004B61224A136843F080531360FFF744FA15
:101B900005461E4B1B6813F0005F05D1FFF73CFAAA
:101BA000401B0228F5D90326002E9BD1174A536902
:101BB00061690B43536195E7144A126812F4806F10
:101BC000ADD101268EE7114A126812F4003FA6D16A
:101BD0000E4A126812F4802FA1D1012682E7012655
:101BE000A8E70A48426922F0C06222F4FE42A168D6
:101BF00023695B08013B5B0643EA01231A43426108
:101C0000BFE701266EE701266CE700BF0010024027
:101C10002DE9F04182B00446036813F4006F33D01D
:101C2000436EB3F5000F15D00CD823B3B3F5800F76
:101C300005D100212030FFF745FF064620E00127AF
:101C40003E4623E0B3F5400F01D1002608E001270E
:101C50003E461BE05E4AD36843F48033D3600026DF
:101C60005B4AD2F8883023F44003616E0B43C2F81C
:101C7000883000270AE000210430FFF76BFE06469B
:101C8000002EEDD0374601E000273E46236813F4CE
:101C9000805F30D0A36EB3F1007F1FD00DD81BB38F
:101CA000B3F1807F06D1002104F12000FFF70AFF85
:101CB000064605E001273E461DE0B3F1407F0AD10C
:101CC000C6B9434AD2F8883023F04073A16E0B4363
:101CD000C2F888300FE001273E460CE03C4AD3684A
:101CE00043F48033D360EBE70021201DFFF732FE81
:101CF0000646E5E73746236813F4003F71D0344BBE
:101D00009B6D13F0805F4ED1314B9A6D42F0805243
:101D10009A659B6D03F080530193019B4FF001087E
:101D20002C4A136843F480731360FFF775F9054676
:101D3000284B1B6813F4807F05D1FFF76DF9401B1A
:101D40000228F5D90326002E46D1214BD3F8903036
:101D500013F4407319D0D4F884209A4212D01C4A4C
:101D6000D2F8903023F44073D2F8901041F48031CF
:101D7000C2F89010D2F8901021F48031C2F890107F
:101D8000C2F8903013F0010F10D1002E40F02781DF
:101D90000F4AD2F8903023F44073D4F884100B43E8
:101DA000C2F8903019E04FF00008B9E7FFF734F9B6
:101DB0000546074BD3F8903013F0020FE5D1FFF73B
:101DC0002BF9401B41F288339842F2D90326DCE715
:101DD00000100240007000403746B8F1000F40F09C
:101DE0000081236813F0010F08D09D4AD2F8883093
:101DF00023F00303A16B0B43C2F88830236813F070
:101E0000020F08D0964AD2F8883023F00C03E16B19
:101E10000B43C2F88830236813F0040F08D0904AAF
:101E2000D2F8883023F03003216C0B43C2F888309D
:101E3000236813F0080F08D0894AD2F8883023F0BD
:101E4000C003616C0B43C2F88830236813F0100F95
:101E500008D0834AD2F8883023F44073A16C0B4336
:101E6000C2F88830236813F0200F08D07C4AD2F8DB
:101E7000883023F44063E16C0B43C2F88830236858
:101E800013F4007F08D0764AD2F8883023F4402338
:101E9000E16D0B43C2F88830236813F4806F08D0DB
:101EA0006F4AD2F8883023F44013216E0B43C2F8F6
:101EB0008830236813F0400F08D0694AD2F8883080
:101EC00023F44053216D0B43C2F88830236813F08C
:101ED000800F08D0624AD2F8883023F44043616D05
:101EE0000B43C2F88830236813F4807F08D05C4A23
:101EF000D2F8883023F44033A16D0B43C2F8883008
:101F0000236813F4005F0FD0554AD2F8883023F0CD
:101F10004063E16E0B43C2F88830E36EB3F1006FAB
:101F200065D0B3F1806F67D0236813F4002F0FD012
:101F30004B4AD2F8883023F04063216F0B43C2F83C
:101F40008830236FB3F1006F5ED0B3F1806F60D043
:101F5000236813F4802F0FD0414AD2F8883023F041
:101F60004063616F0B43C2F88830636FB3F1006F59
:101F700057D0B3F1806F59D0236813F4804F0FD03E
:101F8000374AD2F8883023F04053A16F0B43C2F890
:101F90008830A36FB3F1805F50D0B3F1005F55D0AC
:101FA000236813F4004F08D02D4AD2F8883023F06C
:101FB0008043E16F0B43C2F88830236813F4803FFD
:101FC00009D0274AD2F8883023F00043D4F8801093
:101FD0000B43C2F88830384602B0BDE8F08137467E
:101FE000FBE61F4A936D23F080539365F9E6D368AF
:101FF00043F48013D36097E70121201DFFF7AAFC6B
:10200000002891D007468FE7D36843F48013D3604C
:102010009EE70121201DFFF79DFC002898D0074670
:1020200096E7D36843F48013D360A5E70121201D10
:10203000FFF790FC00289FD007469DE70221201D56
:10204000FFF788FC0028ABD00746A9E7022104F17E
:102050002000FFF737FD0028A2D00746A0E700BF09
:1020600000100240F0B583B000236BE085685E008D
:102070000324B44025EA0405CC68B4402C438460B2
:10208000456825EA0C054C68C4F300149C402C43B9
:10209000446069E0C56A25EA0C05C4F3C0049C40AD
:1020A0002C43C46266E0DD08083550F8254003F093
:1020B000070C4FEA8C0C4FF00F0E0EFA0CFE24EAC0
:1020C0000E0E0C6904FA0CF444EA0E0440F82540A4
:1020D00067E0062400E0002404FA0EF42C430CF11F
:1020E000020C5C4D45F82C405B4CA568D44325EAB6
:1020F00002064F6817F4801F01D042EA0506564DCC
:10210000AE60ED6804EA05064F6817F4001F01D0C1
:1021100042EA0506504DEE606D6804EA05064F6818
:1021200017F4003F01D042EA05064B4D6E602D6862
:102130002C404E6816F4803F01D042EA0504464A1E
:10214000146001330A6832FA03F400F081804FF022
:10215000010C0CFA03FC1CEA0202F2D04C6804F0F9
:102160000304013C012C81D94C6804F0030EBEF13C
:10217000030F8FD04C6804F00304032C0CD0C46808
:102180005D004FF0030C0CFA05FC24EA0C0C8C6883
:10219000AC4044EA0C04C4604C6804F00304022C14
:1021A00081D004684FEA430E4FF0030C0CFA0EFC8A
:1021B00024EA0C0C4C6804F0030404FA0EF444EA1C
:1021C0000C0404604C6814F4403FBAD0234C256ED4
:1021D00045F001052566246E04F001040194019C7C
:1021E0004FEA930C0CF102051A4C54F8255003F0F9
:1021F000030E4FEA8E0E0F2404FA0EF425EA0405AE
:10220000B0F1904F3FF467AF154CA04216D004F5E3
:102210008064A04214D004F58064A04212D004F57A
:102220008064A04210D004F58064A0420ED004F572
:102230008064A0423FF44DAF07244DE701244BE7F3
:10224000022449E7032447E7042445E7052443E73C
:1022500003B0F0BD00000140000401400010024046
:10226000000400480AB18161704781627047436988
:1022700001EA030221EA030141EA02418161704758
:10228000024B186800F4C060704700BF0070004047
:10229000B0F5007F0FD01F4B1B6803F4C063B3F58C
:1022A000806F34D01B4A136823F4C06343F4806307
:1022B000136000207047174B1B6803F4C063B3F52D
:1022C000007F20D0134A136823F4C06343F40073E3
:1022D0001360114B1B68322202FB03F30F4AA2FB6F
:1022E00003239B0C013300E0013B0A4A526912F4BC
:1022F000806F01D0002BF7D1064B5B6913F4806F20
:1023000003D1002070470020704703207047002051
:10231000704700BF007000400800002083DE1B43B0
:10232000002807DB00F01F02400901239340024A06
:1023300042F82030704700BF00E100E0002808DBD1
:102340000901C9B200F1604000F5614080F8001356
:10235000704700F00F000901C9B2014B19547047D2
:1023600014ED00E000B500F00700C0F1070CBCF16F
:10237000040F28BF4FF0040C031D062B0FD9C31EFA
:102380004FF0FF3E0EFA0CF021EA000199400EFAE0
:1023900003FE22EA0E0241EA02005DF804FB00237C
:1023A000EEE70000074AD36823F4E0631B041B0C2C
:1023B000000200F4E060034343F0BF6343F40033E2
:1023C000D360704700ED00E010B50446054BD868B7
:1023D000C0F30220FFF7C6FF01462046FFF7AEFF1D
:1023E00010BD00BF00ED00E008B5FFF799FF08BD84
:1023F0000138B0F1807F0BD24FF0E0235861054ADD
:10240000F02182F823100020986107221A6170479A
:102410000120704700ED00E0054B4FF000629A602C
:10242000D3F8882042F47002C3F88820704700BFB8
:1024300000ED00E010B503460C4A0D490D48006858
:1024400040B10C4800680344521A934206D8094A26
:10245000136010BD0748084C0460F2E700F062F812
:102460000C2303604FF0FF30F3E700BF0080012032
:10247000000400007C4F0020C8500020DFF834D05A
:10248000FFF7CAFF0C480D490D4A002302E0D4585B
:10249000C4500433C4188C42F9D30A4A0A4C0023AE
:1024A00001E013600432A242FBD300F041F8FDF7D3
:1024B00091FFFEE700800120000000206000002066
:1024C0004832000860000020C8500020FEE70000ED
:1024D0000EB410B59DB01FAB029006906FF0004196
:1024E0000A48079104910A4953F8042B05910024E6
:1024F00002A9006801931B9400F098F9029B1C70DC
:102500001DB0BDE8104003B0704700BF0C000020B4
:102510000802FFFF02440346934200D1704703F8CC
:10252000011BF9E7014B1868704700BF0C00002041
:1025300070B50D4B0D4D5B1B9C100026A64209D1BA
:1025400000F0CAFD0A4D0B4B5B1B9C100026A642F7
:1025500005D170BD55F8043B98470136EEE755F8B4
:10256000043B98470136F2E7383200083832000859
:10257000383200083C3200087047704738B50546CD
:10258000002941D051F8043C0C1F002BB8BFE418BF
:1025900000F0E0F81D4A136833B963601460284600
:1025A000BDE8384000F0DCB8A34208D92068211803
:1025B0008B4201BF19685B6809182160EDE71A4674
:1025C0005B680BB1A342FAD911685018A0420BD135
:1025D00020680144501883421160E0D118685B689C
:1025E000536008441060DAE702D90C232B60D6E769
:1025F000206821188B4204BF19685B68636004BFC0
:10260000091821605460CAE738BD00BFC4500020DB
:1026100070B50F4E0C463168054611B900F0AAFBA3
:1026200030602146284600F0A5FB431C03D14FF043
:10263000FF34204670BDC41C24F00304A042F8D02F
:10264000211A284600F096FB0130F2D1EFE700BFD7
:10265000C05000202DE9F843CD1C25F003050835B6
:102660000C2D38BF0C25002D064601DBA94204D9EC
:102670000C2333600020BDE8F883DFF8D48000F03D
:1026800069F8D8F800301C4644BB29463046FFF7AD
:10269000BFFF431C044658D1D8F800402746002FFE
:1026A00043D1002C4BD023683946304604EB030954
:1026B00000F060FB814542D121686D1A2946304601
:1026C000FFF7A6FF01303AD023682B442360D8F8E7
:1026D00000305A6862BBC8F800700FE02268521BD5
:1026E00020D40B2A17D96119A342256018BF59605D
:1026F000636808BFC8F8001062514B60304600F0B4
:102700002FF804F10B00231D20F00700C21A1CBF94
:102710001B1AA350AFE76268A3420CBFC8F80020A1
:102720005A60EBE723466468AEE73C467F68B6E74D
:102730001A465B68A342FBD100235360DEE70C23FB
:102740003360304600F00CF894E70560D6E700BF30
:10275000C45000200148FFF70FBF00BFBC5000204D
:102760000148FFF70ABF00BFBC5000202DE9F04729
:102770008E681F46BE4282460C469046334653D86A
:10278000B1F90C0010F4906F2BD0656923680969CA
:1027900005EB4505A3EB010905EBD5757B1C6D1019
:1027A0004B44AB422A4684BF1D462A46430527D5E3
:1027B00011465046FFF74EFF064658B321694A4678
:1027C00000F0E8FAA38923F4906343F08003A38127
:1027D000266165614E44A5EB09052660A5603E466D
:1027E0003B461F4620683A46414600F0A9FAA368D6
:1027F0009B1BA36023683B4423600020BDE8F08757
:10280000504600F0D5FA06460028E1D1216950462D
:10281000FFF7B4FE0C23CAF80030A38943F040034D
:10282000A3814FF0FF30E9E73E46DBE72DE9F04FAB
:1028300098468B891B069DB007460D46144610D559
:102840000B6973B94021FFF705FF2860286130B993
:102850000C233B604FF0FF301DB0BDE8F08F4023EC
:102860006B610023099320238DF82930CDF80C806B
:102870003023DFF89C818DF82A304FF00109234680
:102880009A4613F8012B0AB1252AF9D1BAEB040BA9
:102890000BD05B46224629463846FFF767FF0130DA
:1028A00000F0A780099A5A4409929AF80030002B48
:1028B00000F09F8000234FF0FF32CDE905230AF19D
:1028C000010A049307938DF853301A935446052256
:1028D00014F8011B4E48FDF763FC049AD8B9D006E2
:1028E00044BF20238DF85330110744BF2B238DF8AC
:1028F00053309AF800302A2B15D0079A54460020FE
:102900004FF00A0C214611F8013B303B092B4BD903
:10291000B0B1079214E0A0EB080309FA03F31343E4
:102920000493A246D2E7039B191D1B680391002B59
:10293000BBBF5B4242F0020207930793B8BF049209
:1029400023782E2B0AD163782A2B32D1039B1A1DB0
:102950001B68039243EAE37302340593DFF8C0A0D7
:10296000217803225046FDF71BFC38B1049BA0EBF5
:102970000A004022824013430134049314F8011BDF
:1029800024488DF828100622FDF70AFC002836D0CE
:10299000214B1BBB039B073323F00703083303932F
:1029A000099B334409936AE70CFB02320C46012071
:1029B000A8E700230134059319464FF00A0C20467E
:1029C00010F8012B303A092A03D9002BC6D0059103
:1029D000C4E70CFB012104460123F0E703AB00939D
:1029E0002A460E4B04A93846AFF30080421C064627
:1029F000D6D1AB895B063FF52DAF09982CE703AB29
:102A000000932A46054B04A9384600F079F8EDE713
:102A1000F831000802320008000000006D270008AD
:102A2000FE3100082DE9F047164698468A680B6982
:102A3000DDF820909342B8BF1346336091F84320ED
:102A400007460C460AB1013333602368990642BF3A
:102A5000336802333360256815F0060506D104F1AA
:102A6000190AE36832689B1AAB4226DC94F84330BB
:102A70002268003B18BF012392062BD404F14302C5
:102A800041463846C84701301ED02368226903F00A
:102A90000603042B02BFE5683368ED1AA3680CBF78
:102AA00025EAE57500259342C4BF9B1AED18002660
:102AB0001A34B5421AD1002008E00123524641469B
:102AC0003846C847013003D14FF0FF30BDE8F087EA
:102AD0000135C6E7E1185A1C302081F84300224432
:102AE00094F8451082F843100233C7E701232246C9
:102AF00041463846C8470130E6D00136D9E70000E4
:102B00002DE9FF470F7E0C9E782F914680460C469C
:102B10009A4601F1430207D8622F0AD8002F00F02D
:102B2000D280582F00F0B78004F1420684F842703A
:102B30003AE0A7F16303152BF6D801A151F823F071
:102B4000992B0008AD2B0008292B0008292B000821
:102B5000292B0008292B0008AD2B0008292B000881
:102B6000292B0008292B0008292B0008AD2C000870
:102B7000D72B0008632C0008292B0008292B0008FC
:102B8000CF2C0008292B0008D72B0008292B000880
:102B9000292B00086B2C000833681A1D1B68326053
:102BA00004F1420684F8423001239DE03368206836
:102BB000191D3160060601D51D6803E04506FBD5E9
:102BC000B3F90050002D03DA2D236D4284F8433011
:102BD00059480A2310E021683368080653F8045B5B
:102BE00002D4490648BFADB26F2F5348336059D164
:102BF0000823002184F843106668A660002E05DBD8
:102C000021682E4321F0040121604DD01646B5FB0A
:102C1000F3F103FB1157C75D06F8017D2F46BB4258
:102C20000D46F4D9082B0BD12368DF0708D523699B
:102C300061689942DEBF302306F8013C06F1FF3699
:102C4000921B2261CDF800A04B4603AA21464046C4
:102C5000FFF7E8FE01304CD14FF0FF3004B0BDE883
:102C6000F087236843F0200323603448782784F8F2
:102C70004570236831681F0651F8045B02D45F0673
:102C800048BFADB23160D90744BF43F02003236091
:102C90001DB11023ADE72848E9E7236823F020039E
:102CA0002360F6E70A23A4E71646BBE733682568E6
:102CB0006169181D30602E061B6801D5196002E09D
:102CC0006806FBD51980002323611646BAE73368EE
:102CD0001A1D32601E68626800213046FDF760FAF6
:102CE00008B1801B606063682361002384F843306F
:102CF000A8E72369324649464046D0470130ABD069
:102D000023689B0713D4E068039B9842B8BF18461A
:102D1000A4E70123324649464046D04701309BD0C4
:102D20000135E36803995B1AAB42F2DCEBE700255F
:102D300004F11906F5E700BF093200081A3200084D
:102D4000884210B501EB020402D98442234607D819
:102D5000431EA14207D011F8012B03F8012FF8E719
:102D60000244824200D110BD13F8011D02F8011D7A
:102D7000F7E7000038B5064D0023044608462B60EF
:102D8000FFF758FB431C02D12B6803B1236038BD09
:102D9000B85000200A44914200F1FF3300D170473F
:102DA00010B511F8014B03F8014F9142F9D110BD54
:102DB0002DE9F041074614460D4621B9BDE8F04122
:102DC0001146FFF747BC2AB9FFF7D8FB254628462E
:102DD000BDE8F08100F01AF88442064602D8B4EB50
:102DE000500FF4D821463846FFF734FC804608B926
:102DF0004546ECE7B4422246294628BF3246FFF753
:102E0000C9FF29463846FFF7B9FBF1E751F8043C02
:102E1000181F002BBCBF0B58C01870472DE9F04796
:102E20008C468E46089E154604461946002B40F0F7
:102E3000D080724547D9B2FA82F74FB1C7F120036B
:102E40000EFA07FC20FA03F3BD4043EA0C0CBC4029
:102E50004FEA154EA8B2BCFBFEF8230C0EFB18CCB3
:102E600008FB00F943EA0C43994528D9EB1808F10F
:102E7000FF3204D2994502D9A8F102022B44A3EBF8
:102E80000903A4B2B3FBFEFC0EFB1C330CFB00F0E9
:102E900044EA0344A04214D92C190CF1FF3304D2A4
:102EA000A04202D9ACF102032C44241A43EA0240A6
:102EB0001EB1FC40002334607360BDE8F0874246D9
:102EC000DDE76346F1E7002A79D0B2FA82F3002BFE
:102ED0003FD01946C1F1200302FA01F52EFA03F2A0
:102EE0000EFA01FE20FA03F343EA0E034FEA154EF1
:102EF00000FA01F4B2FBFEFCAFB20EFB1C201A0C70
:102F00000CFB07F842EA004290455AD9AA180CF186
:102F1000FF3004D2904502D9ACF102002A44A2EB62
:102F200008029BB2B2FBFEFC0EFB1C220CFB07F757
:102F300043EA02439F4246D9EB180CF1FF3204D218
:102F40009F4202D9ACF102022B44DB1B42EA004251
:102F500002E0AEEB020301224FEA154EAFB2B3FB23
:102F6000FEFC200C0EFB1C330CFB07F840EA03436D
:102F700098452AD9EB180CF1FF3004D2984502D9B4
:102F8000ACF102002B44A3EB0803A4B2B3FBFEFC9C
:102F90000EFB1C330CFB07F744EA0344A74216D987
:102FA0002C190CF1FF3304D2A74202D9ACF1020371
:102FB0002C44E41B43EA00400F46114678E71F21EA
:102FC00088E76046ABE76246BFE76046DBE76346FB
:102FD000EFE7734506D916B9002108466DE7C6E943
:102FE000000EF9E7B3FA83F787B9734501D382423C
:102FF00007D8841A6EEB030301209C461EB90021FA
:103000005BE73846FAE7C6E9004CF8E7C7F1200C61
:10301000BB4022FA0CF51D4320FA0CF12EFA0CF3FA
:103020000EFA07FE41EA0E014FEA154900FA07F4CD
:10303000B3FBF9F81FFA85FE09FB18300B0C08FBEF
:103040000EFA43EA00439A4502FA07F240D9EB1818
:1030500008F1FF3004D29A4502D9A8F102002B44AE
:10306000A3EB0A0389B2B3FBF9F809FB183308FB99
:103070000EFE41EA03418E452CD9691808F1FF3351
:1030800004D28E4502D9A8F10203294443EA004044
:10309000A0FB0298A1EB0E014145CE46434602D368
:1030A00006D14C4504D2B9EB020E68EB050301389A
:1030B000002EA4D0B4EB0E0261EB030101FA0CFC6C
:1030C00022FA07F34CEA0303F940C6E9003196E718
:1030D0004046C5E74346D9E7F8B500BFF8BC08BC91
:1030E0009E467047F8B500BFF8BC08BC9E467047C6
:1030F0000A0D4E6F772070726F67616D20697320C3
:10310000696E2074686520626F6F746C6F616465AE
:10311000720D0A0077616974206368756E6B2073A5
:10312000697A6520737461746500000046696C6596
:103130002073697A653A20256C750D0A000000003D
:103140007374617465207761697420636F6D6D615C
:103150006E640A004368756E6B2073697A653A2065
:10316000256C750D0A000000626F6F746C6F6164EE
:103170006572207374617465207761697420636877
:10318000756E6B20646174610000000046616C73B1
:103190006520626F6F746C6F6164657220636F6D20
:1031A0006D616E642074727920616761696E0000E0
:1031B000A0860100400D0300801A060000350C00B7
:1031C00040420F0080841E0000093D0000127A007A
:1031D0000024F40000366E010048E801006CDC02B7
:1031E00000000000010203040000000000000000D5
:1031F0000102030406070809232D302B2000686C08
:103200004C00656667454647003031323334353609
:103210003738394142434445460030313233343542
:10322000363738396162636465660000000000006B
:0832300060CFFF7F01000000E8
:083238009902000800000000EB
:08324000750200080000000007
:10324800010000001000000000093D0010000020EF
:1032580000000000804F0020E84F00205050002060
:103268000000000000000000000000000000000056
:103278000000000000000000000000000000000046
:103288000000000000000000000000000000000036
:103298000000000000000000000000000000000026
:040000050800247D4E
:00000001FF
